:020000040800F2
:1000000020B100203D02000819680008351B0008D7
:10001000016300083D170008C77D000800000000CC
:10002000000000000000000000000000477400080D
:10003000771800080000000095680008F9750008AE
:10004000570200085702000857020008570200082C
:10005000570200085702000857020008570200081C
:10006000570200085702000857020008570200080C
:1000700057020008570200085702000857020008FC
:1000800057020008570200085702000857020008EC
:1000900057020008570200085702000857020008DC
:1000A00057020008570200085702000857020008CC
:1000B00057020008570200084D7600085702000852
:1000C00057020008570200085702000857020008AC
:1000D000570200084D780008B17800085702000860
:1000E0007918000857020008570200085702000854
:1000F000570200085702000857020008570200087C
:10010000570200085702000857020008570200086B
:10011000570200085702000857020008570200085B
:10012000570200085702000857020008570200084B
:1001300000F002F800F073F80AA090E8000C824486
:100140008344AAF10107DA4501D100F068F8AFF263
:10015000090EBAE80F0013F0010F18BFFB1A43F0A5
:100160000103184710700300307003000A444FF079
:10017000000C10F8013B13F0070408BF10F8014B06
:100180001D1108BF10F8015B641E05D010F8016B4B
:10019000641E01F8016BF9D113F0080F1EBF10F8AF
:1001A000014BAD1C0C1B09D16D1E58BF01F801CBD2
:1001B000FAD505E014F8016B01F8016B6D1EF9D555
:1001C0009142D6D37047000000230024002500266A
:1001D000103A28BF78C1FBD8520728BF30C148BFAA
:1001E0000B60704766290AF0B284642900F0BA8077
:1001F000782900F01E81632900F0E184732900F062
:10020000E684002070471FB500F0F8FC04000020D1
:10021000002109F057FFE0601FBD10B510BD00F0D0
:10022000EDFD1146FFF7EFFF09F020F900F00BFE9E
:1002300003B4FFF7F2FF03BC07F0E1FD0948804774
:1002400009480047FEE7FEE7FEE7FEE7FEE7FEE7B8
:10025000FEE7FEE7FEE7FEE704480549054A064BD0
:1002600070470000FD7500083101000820AB002038
:1002700020B1002020AD002020AD002070470000FC
:100280000FB4044910B503AA029800F0A5FC10BCF5
:100290005DF814FB340000200FB41CB5084B06AA0F
:1002A0007B4469460090059800F067FC04460020F6
:1002B000694600F075FC20461CBC5DF814FB00008C
:1002C000FD08000070B5044685690068C10601D5C7
:1002D000302600E02026C00707D070BDD4E90121F8
:1002E00030469047206A401C20626D1EF6D570BDD6
:1002F00070B5044685690078C00707D170BDD4E9A0
:10030000012120209047206A401C20626D1EF6D5F6
:1003100070BD70B50C460546012A05D028788006C8
:1003200000D5EA69002302E0012305E05B1C93424B
:1003300002D2E05C0028F9D1A869E618C01AA861C9
:10034000286A184428622846FFF7BCFF04E0D5E974
:10035000012114F8010B9047B442F8D32846FFF767
:10036000C7FF70BD2DE9F0410646002410687529CD
:10037000314616A510D0AFF30080002802DA4042C3
:1003800013A507E031688A0701D512A502E04907E5
:1003900004D511A5012401E0AFF3008000210A2259
:1003A00006F1240709E0B0FBF2FCB0FBF2F302FB1C
:1003B0001C00303078541846491C0028F3D12346DD
:1003C0002A463046BDE8F04100F06CB9000000005C
:1003D0002D0000002B00000020000000F0B40D46AE
:1003E0000188090502D5214C7C4402E01F4C7C4465
:1003F0000E34002100F1240608E002F00F07120974
:10040000E75D42EA03721B097754491C52EA03076D
:10041000F3D102780023120704D5702D06D009B15C
:10042000022311342246F0BC00F03CB90123103401
:10043000F8E770B504460D4621461068AFF300801A
:10044000024629462046BDE870400023C6E7D21D7B
:1004500022F00703D3E90023C0E70368126843F0E2
:10046000200303600823C3610023B7E7286C03005F
:100470002DE9F05F894604464FF0000ADFF874B1B9
:10048000FB44C0F820A02046E1688847002874D0CB
:10049000252806D0D4E901219047206A401C20621B
:1004A000F1E700265F462046E16888472028054698
:1004B00007DB312D05D2781910F8200C08B106435E
:1004C000F1E7B00701D526F00406C4F81CA0002708
:1004D000C4F818A02A2D09D0284607F089FC38B3A3
:1004E00004EB8708303DC8F8185019E059F8041B90
:1004F000204604EB87029161E1688847012F054699
:1005000018D1E069002820DA26F020061DE0D8F88E
:10051000180000EB800005EB40003038C8F81800E8
:100520002046E1688847054607F062FC0028EED1C6
:10053000012F0AD02E2D08D12046E16888477F1C64
:100540000546022F46F02006C4DBA069002803DA26
:10055000404246F00106A061F00701D026F01006E7
:100560006C2D0BD0682D09D04C2D39D06A2D35D08B
:10057000742D35D07A2D33D016E038E0E1682F465F
:1005800020468847B842054609D16C2F26D04FF443
:100590008060E168064320468847054604E06C2FEA
:1005A0001AD04FF4807006430DB3A5F1410019280D
:1005B00002D8203546F400664A4629462046266081
:1005C0004E46FFF70FFE80B101280BD0F61D26F036
:1005D000070000F1080956E74020E4E78020D8E74B
:1005E0000020D6E706F104094DE7284652E7206AC5
:1005F000BDE8F09FB86B030030B505460B462A46B0
:1006000013F8014B12F8010B08B1A042F8D01CB14D
:10061000002802D06D1CF1E7284630BD4FF0013CA8
:1006200050F8042B51F8043B9A4221D1A2EB0C0361
:10063000934313EACC1317D150F8042B51F8043B21
:100640009A4215D1A2EB0C03934313EACC130BD1BE
:1006500050F8042B51F8043B9A4209D1A2EB0C0349
:10066000934313EACC13DBD04FF00000704700BF78
:10067000D01A01BAB1FA81F101F0180122FA01F0A1
:10068000CB40C1F12001DBB2C0B2C01A2CFA01F399
:10069000D11A914311EAC311E6D1704770477047F0
:1006A000704770472DE9F0470D469946924604463B
:1006B00000F124080168880604D5E06921F01001E2
:1006C000216000E00120A84201DD471B00E0002777
:1006D000A1697A1902EB0900081AA0612078C00606
:1006E00002D42046FFF7EEFD002608E0D4E9012100
:1006F0001AF806009047206A401C761C20624E457E
:10070000F4DB2078C0060AD52046FFF7DBFD06E0C3
:10071000D4E9012130209047206A401C2062381E15
:10072000A7F10107F4DC07E0D4E9012118F805007E
:100730009047206A401C2062281EA5F10105F3DCC9
:100740002046FFF7D5FD2078000602D50220BDE83F
:10075000F0870120FBE770472DE9FF4F0C461E464E
:100760004FF0FF378BB0D2E90001DDF860800A90CE
:100770008A46C1F30A5505B93D46002108464FF0A7
:100780000000BAF1000F00F4400005DA00EB800031
:100790004FF4400101EA50004FEA9059B9F1010FBE
:1007A00000DDB9460A9850EA4A000ED044F61050CF
:1007B000A5F2FF3545432F14B8F1000F1ED0754246
:1007C000291E1EDDC9F100021CE0B8F1010F4FF037
:1007D000000001D0302103E0F24305E02154401C29
:1007E000B042FBDB30460022002121540B99C1F8B6
:1007F0000880C1E900200FB0BDE8F08FBD1B6D1C63
:10080000DEE74A4600DA694206A800F081FA06AB44
:1008100093E8070003AB83E8070050460A9900F00D
:1008200018FB8DE80700A0F500501F3800900398D2
:10083000002D09DD42F21F014A46084403A9039036
:10084000684600F077FD08E0A0F500504A461F38E2
:1008500003A90390684600F081FD8DE807000004BD
:10086000000C03D04FF0FF30410800E01046B8F113
:10087000000F03D00022009215461EE0751E05D41D
:1008800000F0C0F9303262556D1EF9D5B346012231
:10089000084302D000227F1C04E02078302801D1D8
:1008A00000227F1E002A099786D01DE0112D07DA4D
:1008B00000F0A8F9303262556D1C50EA0102F5D102
:1008C000084302D00098C8B10EE00021681E05E080
:1008D000235C625C63542254401E491C8142F7DB56
:1008E000AB46A81B401E0990002004F80B000B9893
:1008F000099AC0F80880C0E9002B7CE711264FF068
:10090000000859E72DE9F04F88460446D21D22F031
:10091000070191B0D1E90001CDE90A0107F054FACD
:1009200002460B98C00F01D02D2007E020688107F8
:1009300001D52B2002E0202101EAC000032A099002
:1009400001D0072A05DB03464146204600F0A0F906
:100950000BE12078800601D5E06900E00620B8F1BF
:10096000650F814606D0B8F1660F18D0B8F1670F51
:1009700070D131E00020B9F1110F009001DB11239B
:1009800001E009F101030AAA01A90CA8FFF7E4FE9E
:10099000DDE90C70002609F10105834647E00120DE
:1009A0004B4600904FF000470AAA01A90CA8FFF798
:1009B000D3FEDDE90DB00C995D46002610B909F1B2
:1009C00001000D18B9EB050003D4C0F1FF3609F1A1
:1009D0000105A5EB09002BE0B9F1010F01DA4FF099
:1009E00001090020B9F1110F0090484601DD1123E3
:1009F00000E003460AAA01A90CA8FFF7ADFEDDE955
:100A00000C704D4600268346207800070AD4AB457B
:100A100000DA5D4601A8012D04DD411911F8011C21
:100A2000302907D04F4502DA17F1040F04DA01200C
:100A300082460FE06D1EEEE7002F02DCED1B3E4408
:100A400003E0781CA84200DD7D1CB81B00F1010A00
:100A50004FF000472078000703D4AA4501DB4FF090
:100A6000FF3A0021B7F1004F0DF143088DF8431014
:100A700024D002202B23002F01DA7F422D230A21CC
:100A8000021EA0F1010000DC5FB197FBF1FC97FBB7
:100A9000F1F201FB1C7C17460CF1300C08F801CD7B
:100AA000EEE7A8F1010003702188090501D5452171
:100AB00000E06521A0F1010800F8011C09980FA9C8
:100AC000A1EB0807FF1D00B10120411901EBEA70FD
:100AD000A1693844081A401EA0612078C00602D4DB
:100AE0002046FFF7EFFB099828B1D4E90121904790
:100AF000206A401C20622078C00622D52046FFF7DD
:100B0000E1FB1EE0002E04DBB34502DD01A8805DA1
:100B100000E03020D4E901219047206A401C206287
:100B2000761CAAF101005FEA000A0AD100F066F81B
:100B3000C0680168405CD4E901219047206A401CEC
:100B40002062281EA5F10105DCDC07E0D4E90121C3
:100B500018F8010B9047206A401C2062381EA7F14C
:100B60000107F3DC2046FFF7C3FB032011B043E687
:100B700001694A1C02610878704700B58FB0CDE961
:100B800001310021059105497944CDE90310114651
:100B90006846FFF76DFC0FB000BD0000E5FFFFFFEA
:100BA0000A6802F8010B0A60704710B5436913B177
:100BB000AFF3008001E0FFF7ACFB012010BD12781D
:100BC00000F124010A7000224A700122EDE7116849
:100BD0004FF0FF32E9E70000074B70B50D467B444C
:100BE000FFF7CBFF0446284600F000F910B14FF0A4
:100BF000FF3070BD204670BDDF86000000487047A2
:100C0000E0AA002030B5B0F10A024FEA900E71F16F
:100C100000034EEA817EB0EB0E0061EB91014FEADA
:100C2000101E4EEA017E10EB0E0041EB11114FEA4F
:100C3000102E4EEA016E10EB0E0041EB11214FEA2F
:100C4000104E4EEA014E10EB0E0041EB11414018E0
:100C500041F100014FEAD00040EA41704FEAD10172
:100C600010EB80054FEA810444EA907444EB0104E0
:100C70006D1944EB0404521BA3414FF0000348BF1D
:100C80000A3200D530BD401C41F1000130BD0000EA
:100C90002DE9F0411F46044603260168072A01F4A6
:100CA000006004DB08B116A505E016A503E008B155
:100CB00015A500E015A521F010002060A069C01E58
:100CC000A0610FB1401EA0612046FFF7FBFA4FB1B3
:100CD000D4E9012138469047206A401C2062C01C9C
:100CE000206206E0206AFAE7D4E9012115F8010B39
:100CF0009047761EF8D22046FFF7FAFABDE8F08159
:100D00004E414E006E616E00494E4600696E6600AF
:100D10002DE9F047814616468AB0334878440DC81D
:100D20008DE80D0030487844801C03AC0DC884E881
:100D30000D0041F69B300844372190FBF1F290FB07
:100D4000F1F5A5F1800501FB12041B3C02D56442BC
:100D5000012000E00020DFF890A080460027FA4440
:100D6000AAF1BE0A0DE0E00709D03246684607EB5B
:100D700047010AEB810100F0F1FA8DE807006410E9
:100D80007F1C002CEFD1184F7F44AC3F18E0E807E0
:100D900014D007EB04100DF1180A90E80E008AE851
:100DA0000E00C068F04201D198190890324606A999
:100DB00003A800F0D3FA03AB83E807006D10641CAE
:100DC000002DE4D132466946B8F1000F03A802D0E5
:100DD00000F0B0FA01E000F0C1FAC9E90001C9F879
:100DE00008200AB0BDE8F087AC630300007B00F088
:100DF0008000704700487047C0AA00207546FFF782
:100E0000F9FFAE4605006946534620F007008546C7
:100E100018B020B5FFF720FABDE820404FF00006DB
:100E20004FF000074FF000084FF0000B21F00701D2
:100E3000AC46ACE8C009ACE8C009ACE8C009ACE815
:100E4000C0098D4670470446AFF300802046FFF787
:100E5000EFF95FEA400C08BF91F0000F4FEA8C23D6
:100E60004FEAC12243EA51514FEA1C5018BF00F526
:100E7000F0404FEA300018BF41F000415FEA6C5C7F
:100E800000F02980BCF1FF3F08BF40F08040704770
:100E9000130C06BF12044FF0100C4FF0000C130E91
:100EA00004BF12020CF1080C130F04BF12010CF165
:100EB000040C930F04BF92000CF1020CD30F04BF7B
:100EC00052000CF1010C11464FF00002A0F11F007E
:100ED000A0EB0C00704711F0004F08BF704731F0D5
:100EE00000413FF4D5AF0B0C06BF09044FF0100CC6
:100EF0004FF0000C0B0E04BF09020CF1080C0B0F95
:100F000004BF09010CF1040C8B0F04BF89000CF124
:100F1000020CCB0F04BF49000CF1010CCCF12003F3
:100F2000A0EB0C0022FA03F302FA0CF241EA0301EF
:100F300000F10100704720F07F4C80EA030023F0AD
:100F40007F47ACEB070303F57C5300F0004003F14F
:100F5000FF032DE980494FEA154B09B44FEA1443CA
:100F600025EA0B4E24EA03480FF2042606EB13276A
:100F700049083E785FEA320203FB0667C7F50007BF
:100F800007FB06F64FEA54374FEAD64606F102064B
:100F900007FB066CCCF1005C4FEA1C472CEA074CBF
:100FA00007FB06F40CFB06F504EB15464FEA961614
:100FB00034BF00204FF000404FEAD13706FB07FC5A
:100FC0004FEA1C4C0CFB0BF7D21B03FB0CF761EB3D
:100FD00007010CFB0EF7B0EB074072EB17420CFB5E
:100FE00008F734BFA2EB0742B2EB074261EB1741AF
:100FF0004FEA0C444FEA910706FB07FC4FEA1C4CF2
:101000000CFB0BF7B0EBC74072EB573203FB0CF74E
:1010100034BFA2EBC742B2EBC74261EB57310CFBC6
:101020000EF7B0EBC70072EB57720CFB08F734BF3A
:10103000A2EBC702B2EBC70261EB5771039F4FEA05
:10104000816141EA921104EBCC044FEAD1374FEAB7
:10105000826206FB07FC42EA90124FEA80604FEA88
:101060001C4C0CFB0BF7D21B03FB0CF761EB0701CD
:101070000CFB0EF7B0EB074072EB17420CFB08F7C6
:1010800034BFA2EB0742B2EB074261EB17414FEAD4
:101090008C554FEA910704EB9C2406FB07FC4FEAB2
:1010A0001C4C0CFB0BF7B0EBC74072EB573203FB49
:1010B0000CF734BFA2EBC742B2EBC74261EB57312A
:1010C0000CFB0EF7B0EBC70072EB57720CFB08F786
:1010D00034BFA2EBC702B2EBC70261EB577115EB4D
:1010E0004C254FEA816141EA92114FEA82624FEA50
:1010F000D13742EA901206FB07FC44F100044FEAA4
:1011000080604FEA1C4C0CFB0BF7D21B03FB0CF767
:1011100061EB07010CFB0EF7B0EB074072EB1742D7
:101120000CFB08F734BFA2EB0742B2EB074261EBBE
:10113000174115EB1C154FEA813141EA92414FEA04
:10114000823242EA90424FEA80304FEA0C7644F114
:10115000000448EA03434EEA0B484FF0000EB2EB9E
:10116000080C71EB030724BF624639464EEB0E0EA6
:101170004FF0000B0018524149414BEB0B0BB2EB07
:10118000080C71EB03077BF1000B24BF6246394664
:101190004EEB0E0E4FF0000B0018524149414BEB45
:1011A0000B0BB2EB080C71EB03077BF1000B24BFB8
:1011B000624639464EEB0E0E51EA020718BF46F062
:1011C000010616EB0E7655F1000254F1000103D52D
:1011D000BDE88901BDE80088BDE88901BDE8004897
:1011E000B619524141EB0101A3F101037047808020
:1011F0007F7E7D7C7B7A7978777676757473727171
:1012000071706F6E6E6D6C6C6B6A6A696868676628
:1012100066656464636362616160605F5F5E5E5DBA
:101220005D5C5C5B5B5A5A5959585857575656552E
:1012300055555454535352525251515050504F4F90
:101240004F4E4E4D4D4D4C4C4C4B4B4B4A4A4A49E0
:101250004949484848474747474646464545454423
:101260004444444343434342424242414141002BB0
:1012700026D4770021D01CB54FEA370703B44FF0CE
:1012800010004FF010014FF000000FBCBDE81040FF
:101290000BF1010BBBF1010F08BF5FEA170722BF7B
:1012A00012F1010211F101014FF0004143F100037D
:1012B00000F0004043EA00007047F9D35708DAE72E
:1012C00046EA064613F1400F4FEA16461FDD13F1BA
:1012D000200FDFBF16430A46002120335B42C8D0EF
:1012E000C3F1200746EA064602FA07F74FEA164618
:1012F00046EA0706C3F1200722FA03F201FA07F7CC
:1013000021FA03F14FF0000342EA0702B1E746EA8F
:10131000020646EA06464FEA164646EA0106BCBF02
:1013200046EA0646360C4FF000034FF000024FF03D
:1013300000019EE72DE9C048934630B491E838009B
:1013400007C831EA400C48BF34EA430C03D5FFF725
:10135000F2FDFFF78CFFF0BCBDE800882DE9C04826
:10136000934630B491E8380007C810F0804F08BFAA
:1013700013F0804F03D100F005F8FFF778FFF0BCC1
:10138000BDE8008820F07F4780EA030023F07F4C0F
:1013900007EB0C03A3F57C5300F00040A3F1FE0320
:1013A00092F0000F00F0B38095F0000F00F077800E
:1013B0002DE901494FEA11404FEA144621EA00485D
:1013C00000FB06FC24EA064708FB06F607FB08F8C4
:1013D00000FB07F718EB06484CEB164C4FEA124B94
:1013E00018EB07484FEA15464CEB174022EA0B4E24
:1013F0000BFB06FC25EA06470EFB06F607FB0EFE76
:101400000BFB07F71EEB064E4CEB164C4FF000069D
:101410001EEB074E4CEB174B18EB0B0840F100008E
:1014200018EB0E0B58EB000840F100008F1A4FF03C
:1014300000013CBFC943661B14BFB5EB040C00217F
:101440003CBFC943F61B4FEA17444EEA8E0E27EA0B
:1014500004454FEA1C4704FB07622CEA074C05FBD6
:1014600007F70CFB05F604FB0CFC16EB074642EBFA
:10147000174216EB0C4642EB1C421BEB060658EBE0
:101480000202414146EA9E0601D5BDE80189B6192E
:10149000524141EB0101A3F10103BDE801894FEA8B
:1014A00014454FEA114724EA054621EA074C05FB9B
:1014B00007F406FB07F70CFB06F105FB0CFC11EB30
:1014C000074144EB17444FEA124711EB0C4144EB40
:1014D0001C4422EA074C05FB07F206FB07F70CFB4E
:1014E00006F605FB0CFC16EB074642EB174216EB23
:1014F0000C4642EB1C456A1854F1000148BF704786
:10150000B619524141EB0101A3F10103704795F077
:10151000000F37D04FEA11424FEA144721EA024642
:1015200024EA074C02FB07F106FB07F70CFB06F465
:1015300002FB0CFC14EB074441EB17414FEA154743
:1015400014EB0C4441EB1C4125EA074C02FB07F568
:1015500006FB07F70CFB06F602FB0CFC16EB074636
:1015600045EB174516EB0C4645EB1C42121951F1A1
:10157000000148BF7047B619524141EB0101A3F188
:10158000010370474FEA14454FEA114724EA054624
:1015900021EA074C05FB07F106FB07F70CFB06F2F7
:1015A0004FF0000605FB0CFC12EB074241EB174124
:1015B00012EB0C4251EB1C4148BF7047921841EBB3
:1015C0000101A3F1010370470029816802D041F0B5
:1015D000010101E021F00101816070470D4910B562
:1015E000884202D1012144150AE00B49884202D108
:1015F0000121041504E0094988420AD10121CC03E4
:10160000204605F083F92046BDE81040002105F092
:101610007DB910BD0024014000280140003C01407C
:10162000014600208968490700D50120704701461E
:1016300000208968090700D50120704710B542686D
:101640000E4B0C791A400B6842EA042213434360A4
:1016500082680B4B1A40D1E9024323434C7942EA9A
:10166000440213438360C26A097C22F47002491E5B
:10167000C9B242EA0151C16210BD0000FFFEF0FF95
:10168000FDF7F1FF816841F0080181607047002992
:10169000816802D041F4A00101E021F4A001816041
:1016A0007047816841F004018160704730B587B0B0
:1016B00001214FF4017005F01DF94FF4004005F0D1
:1016C000EBF80F20ADF8140000248DF8174005A9A1
:1016D000184800F095F9184D2846FFF77FFF4FF4A2
:1016E0006020CDE9020401208DF804408DF810003F
:1016F00000948DF8054069462846FFF79FFF0121B9
:101700002846FFF761FF2846FFF7BCFF2846FFF792
:101710008EFF0028FAD12846FFF7C3FF2846FFF7BF
:101720007FFF0028FAD101212846FFF7B0FF07B05C
:1017300030BD00000008014000240140FEE7002900
:10174000016802D041F0010102E04FF6FE72114043
:101750000160704701684FF6FE7211400160002180
:10176000016041608160C1603149314A083990426D
:1017700003D1486840F00F0006E02D4A1432904231
:1017800004D1486840F0F00048607047284A283289
:10179000904203D1486840F47060F5E7244A3C3237
:1017A000904203D1486840F47040EDE7204A50323F
:1017B000904203D1486840F47020E5E71C4A643247
:1017C000904203D1486840F47000DDE7184A78324F
:1017D000904203D1486840F07060D5E7154A111F68
:1017E000904203D1086840F00F0006E0114A14321D
:1017F000904204D1086840F0F000086070470D4A3C
:101800002832904203D1086840F47060F5E7094A35
:101810003C32904203D1086840F47040EDE7054A3D
:1018200050329042EAD1086840F47020E5E70000A9
:10183000080002400804024030B5026847F6F07321
:101840009A430C6A8B682343D1E904452C43234314
:101850008C692343CC6923434C6A23438C6A23431A
:1018600013430360CA6842600A6882604968C160C5
:1018700030BD41607047704710B5002000F0A0F9FE
:10188000144C01280DD1D4F8A001E8B10020C4F80F
:10189000A00105F091F808F061FA4FF4005000F053
:1018A0005DF8002000F08CF9022811D1D4F8A001D5
:1018B00060B10020C4F8A00105F0C6FDBDE81040ED
:1018C0004FF4004000F04AB80120E0E70120F1E7C2
:1018D00010BD000000002142FEB50121084605F0C0
:1018E00009F800F03FF90D21002000F075F80025FF
:1018F0004FF400508DF804500C2600908DF80560D0
:1019000001248DF80640684600F02EF80F210020D3
:1019100000F062F8E0038DF8045000908DF8056047
:101920008DF80640684600F01FF828268DF80860FC
:1019300002208DF809008DF80A408DF80B4002A8AE
:1019400004F06CFF8DF808608DF809408DF80A509E
:101950008DF80B4002A804F061FFFEBD014908604C
:10196000704700001404014030B51A4A83790168B9
:1019700053B313688B431360111D0B680468A343B2
:101980000B60017911440B68046823430B60114B11
:10199000083319680468A14319601C1D2168056893
:1019A000A94321604179102905D011440A680068D3
:1019B00002430A6030BD196802681143196021684A
:1019C00000680143216030BD0079104402688A43F9
:1019D000026030BD0004014010B58A0721F0030405
:1019E0000649120F21440F238C6893409C438C605E
:1019F0008B68904003438B6010BD000000000140E5
:101A0000F0B5CC78002204F00F03E40601D58C7801
:101A100023430C784FF00F0C14F0FF0F4FF0010E22
:101A20001BD005680E880EFA02F42640A64210D19B
:101A300096000CFA06F725EA070703FA06F5CE78B2
:101A40003D43282E02D0482E02D002E0446100E03F
:101A50000461521C082AE5D305600A88FF2A1CD9B4
:101A60004468002202F108060EFA06F50E882E40A0
:101A7000AE420ED196000CFA06F7BC4303FA06F705
:101A8000CE783C43282E00D14561CE78482E00D137
:101A90000561521C082AE5D34460F0BDF0B5144C32
:101AA000002801DAE36900E06368450D2E0185B284
:101AB000C0F30157B540C0F30342032F05D0C6025F
:101AC0000AD503269640B34307E023F070626368AB
:101AD00023F07063636002E0AB4343F0706201B1D6
:101AE0002A43002801DAE261F0BD6260F0BD000027
:101AF000000001400246002092680A4200D0012006
:101B000070470161704770B50C46054604F08EFCC5
:101B10002146284604F00AFC2146284604F036FCFB
:101B20002146284604F0F6FC21462846BDE87040D0
:101B300004F0E4BDFEE710B506F012FB4FF41640CA
:101B400008F05CFA06F024FE00F0E8FA04F09EFBD0
:101B500000F008F807F0A4FFFFF7BEFEBDE8104054
:101B6000FFF7A4BD38B50121142004F0C3FE012104
:101B70001148FFF793FF4FF40040ADF800000F4D00
:101B800048248DF8034069462846FFF739FF691459
:101B9000ADF800108DF8034069462846FFF730FF86
:101BA0000120ADF8000028208DF803006946284682
:101BB000FFF726FF38BD000000023000000801409A
:101BC0002DE9F0410126264C264D77034FF40048BD
:101BD00008B1267001E0207878B139462846FFF731
:101BE00089FF88B141462846FFF784FF60B1012193
:101BF0002846FFF77FFF012806D039462846FFF721
:101C000079FF01281DD028E00A2006F0C7FA00203D
:101C1000207039462846FFF76DFF58B141462846E7
:101C2000FFF768FF48B101212846FFF763FF01284D
:101C300005D012E00120BDE8F0810220FBE703207F
:101C4000F9E741462846FFF755FF012805D1012154
:101C50002846FFF74FFF00B926700020EBE7000091
:101C600028000020000801402DE9F0431C4F0646E3
:101C7000002438887D884543B888A0F5D0410439D0
:101C800002D1B87901280CD00021084604F048F8A8
:101C900004F0E0FA13494FF480774B15124A802084
:101CA0001AE00020B8714FF02A08A7F80A804FF018
:101CB0002B09A7F80C90014604F032F80120B87106
:101CC000A7F80A90A7F80C80E2E70F614B61166055
:101CD000486108610B61641CAC42F6D3BDE8F08337
:101CE00088030020001001400C0C01402DE9F04F4A
:101CF0004A492A232B24898845F2105A4FF4305B35
:101D00004FF4285E4FF448754FF0F00C49F241391A
:101D10004FF4A07745F210364FF4F07280B13F488F
:101D20004FF00108494580F806800780A0F802C0FE
:101D300001D0B1423ED12C2505814381848157E0F9
:101D400036484FF00008494580F80680A0F800C0EA
:101D5000478006D0A1F5D04CBCF1040C01D0B142B3
:101D60000CD12C2505814381A1F5D0438481043B0E
:101D700001D0B14244D10780428041E0514507D1B2
:101D8000A0F808B0A0F80AE04FF42C5181810EE0D1
:101D9000A1F5C856633E06D0222101812021418150
:101DA000212181812CE02C210181448183810280C9
:101DB000458025E0A1F5D04CBCF1040C09D051457B
:101DC0000BD1A0F808B0A0F80AE04FF42C5383819F
:101DD00021E02C250581448109E0A1F5C85CBCF116
:101DE000630C12D02223038121234381202383818A
:101DF000A1F5D043043B01D0B14201D1028047801C
:101E0000BDE8F04F002003F011BE4FF02C0CA0F8FD
:101E100008C04381848105804280E9E7880300206F
:101E20002DE9F74F05468F4881B0DFF83CA2818845
:101E300002982F0A00F0FF094FEA1028E8B200903C
:101E40008848A1F513424FF4807B40894FF4007617
:101E5000413A17D0834CA1F5A642103A12D0B2F500
:101E6000007236D02246A1F5C85793791288521BCA
:101E7000521E633F63D0A1F5D047043F7ED0012BB3
:101E80007DD0D1E004F0D4F9784CC4F810B066618C
:101E9000CAF800708025656125612661C4F810B01C
:101EA00066610098CAF800006561256126616D4889
:101EB000808904F0BDF9C4F810B066615146CAF8D3
:101EC0000080656125612661C4F810B066614846EE
:101ED00031E004F0ADF9654CC4F810B06661CAF8A1
:101EE000007080256561256126615E484089401C3F
:101EF00080B204F09DF9C4F810B066610098CAF889
:101F000000006561256126615648808904F090F9DA
:101F1000C4F810B06661CAF8008065612561266169
:101F200050488089401C80B204F082F9C4F810B097
:101F300066614846514608606561256171E003B9F4
:101F400095B204F075F9494CC4F810B06661280ADE
:101F5000CAF800008027676127612661C4F810B0C5
:101F60006661E9B2CAF80010676127612661C4F8AA
:101F700010B06661CAF80000676101E024E052E039
:101F800027612661C4F810B06661CAF80010676165
:101F9000276126613348808904F04AF9C4F810B0FB
:101FA00066615146CAF80080676127612661C4F8FE
:101FB00010B06661CAF80090676127612661C4F8B5
:101FC00010B06661404621E0012B00D195B204F0CB
:101FD0002FF9264CC4F810B06661290ACAF800101F
:101FE0008027676127612661C4F810B06661E9B295
:101FF000CAF800106761276126611A48808904F0D9
:1020000017F9C4F810B06661404651460860676130
:1020100027612661C4F810B06661C1F8009067615D
:102020002761266107E095B2294604F019F9A089D5
:10203000029904F015F90D48C0F814B04661094939
:102040000989CAF800108021416101610661C0F868
:1020500010B04661039BCAF800304161016106611E
:10206000BDE8FF8F880300200C0C014000100140E8
:102070002DE9F84F264D81469846A8880A9EA0F57E
:10208000D043043B02D1A87901280AD0A2EB090071
:10209000401C85B20C461F4F4FF4007A4FF0800B66
:1020A00032E02B880846991A0024AC712A24A3EB4D
:1020B00009036C812B27491E5B1EAF8189B2424602
:1020C0009BB20096FFF7D4FF0120A8716F81AC810D
:1020D000BDE8F88F2146484603F022FE04F0BAF826
:1020E00000204FF4807C53460B4A594608E0C7F85D
:1020F00010C07B611660796139613B61401C80B220
:10210000A842F4D3641CA4B24445E3D9E0E700003C
:1021100088030020001001400C0C01402DE9F84F0D
:102120000121192004F0E6FB0121FE48FFF7B6FC6F
:102130004FF4FA60ADF8000010208DF80300DFF8CE
:10214000E88303208DF80200694644464046FFF7C5
:1021500057FC4FF4F8612046FFF7D3FCF34D4FF6E0
:10216000FF74ADF8004069462846FFF749FC214658
:102170002846FFF7C6FC322006F010F801210020A7
:1021800004F06EF8322006F009F8002003F0F8FBA6
:10219000E74C49F2413746F60409A08045F2103A6F
:1021A00045F21055FF2806D3A0F57F41FF3902D034
:1021B000B0F5134F70D1D32004F03AF803F0A8FB28
:1021C00003F0A6FB03F0A4FB4FF6FF7606EA00201F
:1021D000A08003F09DFBA1880843A080B8425BD09B
:1021E000BF2004F025F803F093FB03F091FB03F00C
:1021F0008FFB03F08DFB06EA0020A08003F088FB34
:10220000A1880843A080484546D0D42004F010F8A7
:1022100003F07EFB03F07CFB03F07AFB06EA002070
:10222000A08003F075FBA1880843A080504533D0FF
:102230004FF45A4003F0FCFF03F06AFB4FF45B409D
:1022400003F0F6FF03F064FB06EA0020A0804FF4E1
:102250005C4003F0EDFF03F05BFBA1880843A08026
:10226000B0F5004F7ED0A84216D0A12003F0E0FFC9
:1022700003F04EFBA08003F04BFB06EA0020A08099
:1022800003F046FBA1880843A0F5AE41A080613968
:1022900002D141F66310A080A188A6A0FDF7F0FF4F
:1022A000A088B8427ED1CF2003F0C2FF002003F007
:1022B000ADFFC12003F0AAFF302003F0A7FFED20FF
:1022C00003F0B6FF642003F0A1FF032003F09EFF9C
:1022D000122003F09BFF812003F098FFE82003F019
:1022E000A7FF852003F092FF102003F08FFF7A20D4
:1022F00003F08CFFCB2003F09BFF392003F086FF17
:102300002C2003F083FF002003F080FF342003F033
:102310007DFF022003F07AFFF72003F089FF2020E1
:1023200003F074FFEA2003F083FF002003F06EFF48
:10233000002003F06BFFC02003F07AFF1B2003F0A6
:1023400065FFC12003F074FF012003F05FFFC5208B
:1023500003F06EFF302003F059FF302003F056FFEA
:10236000C72000E0B2E003F063FFB72003F04EFFA8
:10237000362003F05DFF482003F048FF3A2003F0C9
:1023800057FF552003F042FFB12003F051FF00201A
:1023900003F03CFF1A2003F039FFB62003F048FF9A
:1023A0000A2000E094E003F031FFA22003F02EFFAA
:1023B000F22003F03DFF002003F028FF262003F069
:1023C00037FF012003F022FFE02003F031FF0F2050
:1023D00003F01CFF2A2003F019FF282003F016FF4A
:1023E000082003F013FF0E2003F010FF082003F075
:1023F0000DFF542003F00AFFA92003F007FF43203C
:1024000003F004FF0A2003F001FF0F2003F0FEFE9B
:10241000002003F0FBFE002003F0F8FE002003F094
:10242000F5FE002003F0F2FEE12003F001FF0020A2
:1024300003F0ECFE152003F0E9FE172003F0E6FEA2
:10244000072003F0E3FE112003F0E0FE062003F076
:10245000DDFE2B2003F0DAFE562003F0D7FE3C20F1
:1024600003F0D4FE052003F0D1FE102003F0CEFED1
:102470000F2003F0CBFE3F2003F0C8FE3F2003F007
:10248000C5FE0F2003F0C2FE2B2003F0D1FE00207A
:1024900003F0BCFE002003F0B9FE012003F0B6FEFD
:1024A0003F2003F0B3FE2A2003F0C2FE002003F019
:1024B000ADFE002003F0AAFE002003F0A7FEEF20EF
:1024C00003F0A4FE112003F0B3FEB8E0A580E3E61C
:1024D00048457DD1112003F0ABFE142005F05EFECF
:1024E000D02003F0A5FE072003F090FE422003F069
:1024F0008DFE1D2003F08AFED12003F099FE0020FE
:1025000003F084FE1A2003F081FE092003F07EFE12
:10251000D22003F08DFE012003F078FE222003F08C
:1025200075FE0FE00002300000100140000C014079
:1025300088030020204C43442049443A25780D0A62
:1025400000000000C02003F073FE102003F05EFEC8
:102550003B2003F05BFE002003F058FE022003F056
:1025600055FE112003F052FEC52003F061FE03204A
:1025700003F04CFEC82003F05BFE002003F046FE93
:10258000252003F043FE212003F040FE052003F048
:102590003DFE002003F03AFE0A2003F037FE6520DE
:1025A00003F034FE252003F031FE772003F02EFEE9
:1025B000502003F02BFE0F2003F028FE002003F034
:1025C00025FEF82003F034FE012003F01FFE00E09A
:1025D0003BE0FE2003F02CFE002003F017FE02205B
:1025E00003F014FE202003F023FE362003F020FE2B
:1025F000082003F00BFE3A2003F01AFE552003F0EA
:1026000005FE2B2003F014FE002003F0FFFD002048
:1026100003F0FCFD012003F0F9FD3F2003F0F6FD7F
:102620002A2003F005FE002003F0F0FD002003F057
:10263000EDFD012003F0EAFDDF2003F0E7FD782047
:1026400005F0ACFD292001F0FBBE50457ED1ED2008
:1026500003F0EEFD012003F0D9FDFE2003F0D6FDCE
:10266000EE2003F0E5FDDE2003F0D0FD212003F095
:10267000CDFDF12003F0DCFD012003F0C7FDDF20DC
:1026800003F0D6FD102003F0C1FDC42003F0D0FDFF
:102690008F2003F0BBFDC62003F0CAFD002003F02D
:1026A000B5FDE22003F0B2FDE22003F0AFFDE22031
:1026B00003F0ACFDBF2003F0BBFDAA2003F0A6FD94
:1026C000B02003F0B5FD0D2003F0A0FD002003F0C5
:1026D0009DFD0D2003F09AFD002003F097FD1120D1
:1026E00003F094FD002003F091FD192003F08EFD0E
:1026F000002003F08BFD212003F088FD002003F073
:1027000085FD2D2003F082FD002003F07FFD3D209C
:1027100003F07CFD002003F079FD5D2003F076FDE1
:10272000002003F073FD5D2003F070FD002003F036
:102730006DFDB12003F07CFD802003F067FD0020DB
:1027400003F064FD8B2003F061FD00E0FDE3002059
:1027500003F05CFD962003F059FD002003F056FDC8
:10276000B22003F065FD002003F050FD002003F0CF
:102770004DFD022003F04AFD002003F047FD032039
:1027800003F044FD002003F041FDB32003F050FDB1
:10279000002003F03BFD002003F038FD002003F093
:1027A00035FD002003F032FD002003F02FFD002056
:1027B00003F02CFD002003F029FD002003F026FD8E
:1027C000002003F023FD002003F020FD002003F093
:1027D0001DFD002003F01AFD002003F017FD00206E
:1027E00003F014FD002003F011FD002003F00EFDA6
:1027F000002003F00BFD002003F008FD002003F093
:1028000005FD002003F002FD002003F0FFFC002086
:1028100003F0FCFC002003F0F9FC002003F0F6FCC0
:10282000B42003F005FD8B2003F0F0FC002003F042
:10283000EDFC962003F0EAFC002003F0E7FCA12069
:1028400003F0E4FC002003F0E1FCB52003F0F0FC11
:10285000022003F0DBFC002003F0D8FC032003F08F
:10286000D5FC002003F0D2FC042003F0CFFC0020B4
:1028700003F0CCFCB62003F0DBFC002003F0C6FC28
:10288000002003F0C3FCB72003F0D2FC002003F0CB
:10289000BDFC002003F0BAFC3F2003F0B7FC002091
:1028A00003F0B4FC5E2003F0B1FC002003F0AEFCAA
:1028B000642003F0ABFC002003F0A8FC8C2003F0A4
:1028C000A5FC002003F0A2FCAC2003F09FFC00203C
:1028D00003F09CFCDC2003F099FC002003F096FC44
:1028E000702003F093FC002003F090FC902003F094
:1028F0008DFC002003F08AFCEB2003F087FC002015
:1029000003F084FCDC2003F081FC002003F07EFC5B
:10291000B82003F08DFC002003F078FC002003F0C9
:1029200075FC002003F072FC002003F06FFC002017
:1029300003F06CFC002003F069FC002003F066FC4F
:10294000002003F063FCBA2003F072FC242003F0A3
:102950005DFC002003F05AFC002003F057FC00202F
:1029600003F054FCC12003F063FC202003F04EFC74
:10297000002003F04BFC542003F048FC002003F03F
:1029800045FCFF2003F042FC002003F03FFCC22086
:1029900003F04EFC0A2003F039FC002003F036FC63
:1029A000042003F033FC002003F030FCC32003F0CC
:1029B0003FFC3C2003F02AFC002003F027FC3A20D7
:1029C00003F024FC002003F021FC392003F01EFC5E
:1029D000002003F01BFC372003F018FC002003F05C
:1029E00015FC3C2003F012FC002003F00FFC362005
:1029F00003F00CFC002003F009FC322003F006FC7D
:102A0000002003F003FC2F2003F000FC002003F063
:102A1000FDFB2C2003F0FAFB002003F0F7FB29203C
:102A200003F0F4FB002003F0F1FB262003F0EEFBA3
:102A3000002003F0EBFB242003F0E8FB002003F070
:102A4000E5FB242003F0E2FB002003F0DFFB232062
:102A500003F0DCFB002003F0D9FB3C2003F0D6FBA5
:102A6000002003F0D3FB362003F0D0FB002003F05E
:102A7000CDFB322003F0CAFB002003F0C7FB2F2060
:102A800003F0C4FB002003F0C1FB2C2003F0BEFBCD
:102A9000002003F0BBFB292003F0B8FB002003F06B
:102AA000B5FB262003F0B2FB002003F0AFFB24208F
:102AB00003F0ACFB002003F0A9FB242003F0A6FBED
:102AC000002003F0A3FB232003F0A0FB002003F071
:102AD0009DFBC42003F0ACFB622003F097FB0020B9
:102AE00003F094FB052003F091FB002003F08EFB24
:102AF000842003F08BFB002003F088FBF02003F020
:102B000085FB002003F082FB182003F07FFB0020F0
:102B100003F07CFBA42003F079FB002003F076FB9C
:102B2000182003F073FB002003F070FB502003F02B
:102B30006DFB002003F06AFB0C2003F067FB002014
:102B400003F064FB172003F061FB002003F05EFB41
:102B5000952003F05BFB002003F058FBF32003F00B
:102B600055FB002003F052FBE62003F04FFB002052
:102B700003F04CFBC52003F05BFB322003F046FB67
:102B8000002003F043FB442003F040FB002003F04F
:102B90003DFB652003F03AFB002003F037FB762075
:102BA00003F034FB002003F031FB882003F02EFB00
:102BB000002003F02BFBC62003F03AFB202003F09B
:102BC00025FB002003F022FB172003F01FFB002051
:102BD00003F01CFB012003F019FB002003F016FB9F
:102BE000C72003F025FB002003F010FB002003F0BA
:102BF0000DFB002003F00AFB002003F007FBC820B8
:102C000003F016FB002003F001FB002003F0FEFAA6
:102C1000002003F0FBFA002003F0F8FAC92003F0CB
:102C200007FB002003F0F2FA002003F0EFFA002087
:102C300003F0ECFA002003F0E9FA002003F0E6FAD2
:102C4000002003F0E3FA002003F0E0FA002003F094
:102C5000DDFA002003F0DAFA002003F0D7FA0020B2
:102C600003F0D4FA002003F0D1FA002003F0CEFAEA
:102C7000002003F0CBFA002003F0C8FA002003F094
:102C8000C5FAE02003F0D4FA162003F0BFFA0020C2
:102C900003F0BCFA1C2003F0B9FA002003F0B6FAE6
:102CA000212003F0B3FA002003F0B0FA362003F03D
:102CB000ADFA002003F0AAFA462003F0A7FA00209C
:102CC00003F0A4FA522003F0A1FA002003F09EFAC8
:102CD000642003F09BFA002003F098FA7A2003F0B6
:102CE00095FA002003F092FA8B2003F08FFA00206F
:102CF00003F08CFA992003F089FA002003F086FA99
:102D0000A82003F083FA002003F080FAB92003F032
:102D10007DFA002003F07AFAC42003F077FA00204D
:102D200003F074FACA2003F071FA002003F06EFA7F
:102D3000D22003F06BFA002003F068FAD92003F0E8
:102D400065FA002003F062FAE02003F05FFA002049
:102D500003F05CFAF32003F059FA002003F056FA6E
:102D6000E12003F065FA162003F050FA002003F08A
:102D70004DFA1C2003F04AFA002003F047FA222003
:102D800003F044FA002003F041FA362003F03EFA43
:102D9000002003F03BFA452003F038FA002003F04E
:102DA00035FA522003F032FA002003F02FFA6420A3
:102DB00003F02CFA002003F029FA7A2003F026FA17
:102DC000002003F023FA8B2003F020FA002003F008
:102DD0001DFA992003F01AFA002003F017FAA82030
:102DE00003F014FA002003F011FAB92003F00EFAF0
:102DF000002003F00BFAC42003F008FA002003F0CF
:102E000005FACA2003F002FA002003F0FFF9D220ED
:102E100003F0FCF9002003F0F9F9D82003F0F6F9EB
:102E2000002003F0F3F9E02003F0F0F9002003F0B4
:102E3000EDF9F32003F0EAF9002003F0E7F9E220CE
:102E400003F0F6F9052003F0E1F9002003F0DEF9C4
:102E50000B2003F0DBF9002003F0D8F91B2003F06E
:102E6000D5F9002003F0D2F9342003F0CFF9002087
:102E700003F0CCF9442003F0C9F9002003F0C6F9AF
:102E80004F2003F0C3F9002003F0C0F9612003F0E4
:102E9000BDF9002003F0BAF9792003F0B7F900205A
:102EA00003F0B4F9882003F0B1F9002003F0AEF983
:102EB000972003F0ABF9002003F0A8F9A62003F057
:102EC000A5F9002003F0A2F9B72003F09FF9002034
:102ED00003F09CF9C22003F099F9002003F096F961
:102EE000C72003F093F9002003F090F9D12003F0FC
:102EF0008DF9002003F08AF9D62003F087F900202D
:102F000003F084F9DD2003F081F9002003F07EF95D
:102F1000F32003F07BF9002003F078F9E32003F0BD
:102F200087F9052003F072F9002003F06FF90A20F9
:102F300003F06CF9002003F069F91C2003F066F936
:102F4000002003F063F9332000E0FAE203F05EF9B9
:102F5000002003F05BF9442003F058F9002003F04F
:102F600055F9502003F052F9002003F04FF9622088
:102F700003F04CF9002003F049F9782003F046F9FA
:102F8000002003F043F9882003F040F9002003F00B
:102F90003DF9972003F03AF9002003F037F9A62015
:102FA00003F034F9002003F031F9B72003F02EF9D3
:102FB000002003F02BF9C22003F028F9002003F0D1
:102FC00025F9C72003F022F9002003F01FF9D120D2
:102FD00003F01CF9002003F019F9D52003F016F9CD
:102FE000002003F013F9DD2003F010F9002003F0B6
:102FF0000DF9F32003F00AF9002003F007F9E420AB
:1030000003F016F9012003F001F9002003F0FEF8A7
:10301000012003F0FBF8002003F0F8F8022003F091
:10302000F5F8002003F0F2F82A2003F0EFF8002072
:1030300003F0ECF83C2003F0E9F8002003F0E6F898
:103040004B2003F0E3F8002003F0E0F85D2003F0EC
:10305000DDF8002003F0DAF8742003F0D7F8002040
:1030600003F0D4F8842003F0D1F8002003F0CEF868
:10307000932003F0CBF8002003F0C8F8A22003F05F
:10308000C5F8002003F0C2F8B32003F0BFF8002019
:1030900003F0BCF8BE2003F0B9F8002003F0B6F846
:1030A000C42003F0B3F8002003F0B0F8CD2003F003
:1030B000ADF8002003F0AAF8D32003F0A7F8002011
:1030C00003F0A4F8DD2003F0A1F8002003F09EF83F
:1030D000F32003F09BF8002003F098F8E52003F0BC
:1030E000A7F8002003F092F8002003F08FF80020EA
:1030F00003F08CF8002003F089F8022003F086F832
:10310000002003F083F8292003F080F8002003F06A
:103110007DF83C2003F07AF8002003F077F84B208C
:1031200003F074F8002003F071F85D2003F06EF8EE
:10313000002003F06BF8742003F068F8002003F01F
:1031400065F8842003F062F8002003F05FF8932014
:1031500003F05CF8002003F059F8A22003F056F8C1
:10316000002003F053F8B32003F050F8002003F0E0
:103170004DF8BE2003F04AF8002003F047F8C420C1
:1031800003F044F8002003F041F8CD2003F03EF8AE
:10319000002003F03BF8D32003F038F8002003F0C0
:1031A00035F8DC2003F032F8002003F02FF8F3208C
:1031B00003F02CF8002003F029F8E62003F038F89B
:1031C000112003F023F8002003F020F8342003F04E
:1031D0001DF8002003F01AF8562003F017F800201D
:1031E00003F014F8762003F011F8002003F00EF835
:1031F000772003F00BF8002003F008F8662003F0B6
:1032000005F8002003F002F8882002F0FFFF0020FC
:1032100002F0FCFF992002F0F9FF002002F0F6FF17
:10322000BB2002F0F3FF002002F0F0FF992002F033
:10323000EDFF002002F0EAFF662002F0E7FF002029
:1032400002F0E4FF552002F0E1FF002002F0DEFF73
:10325000552002F0DBFF002002F0D8FF452002F0ED
:10326000D5FF002002F0D2FF432002F0CFFF002064
:1032700002F0CCFF442002F0C9FF002002F0C6FF9C
:10328000E72002F0D5FF322002F0C0FF002002F05C
:10329000BDFF552002F0BAFF002002F0B7FF7620F4
:1032A00002F0B4FF002002F0B1FF662002F0AEFF92
:1032B000002002F0ABFF672002F0A8FF002002F020
:1032C000A5FF672002F0A2FF002002F09FFF8720E9
:1032D00002F09CFF002002F099FF992002F096FF77
:1032E000002002F093FFBB2002F090FF002002F0CC
:1032F0008DFF992002F08AFF002002F087FF7720DF
:1033000002F084FF002002F081FF442002F07EFFE3
:10331000002002F07BFF562002F078FF002002F030
:1033200075FF232002F072FF002002F06FFF3320B0
:1033300002F06CFF002002F069FF452002F066FFFA
:10334000002002F063FFE82002F072FF002002F08C
:103350005DFF002002F05AFF992002F057FF002085
:1033600002F054FF872002F051FF002002F04EFFD0
:10337000882002F04BFF002002F048FF772002F087
:1033800045FF002002F042FF662002F03FFF0020D0
:1033900002F03CFF882002F039FF002002F036FFE7
:1033A000AA2002F033FF002002F030FFBB2002F021
:1033B0002DFF002002F02AFF992002F027FF0020B5
:1033C00002F024FF662002F021FF002002F01EFF21
:1033D000552002F01BFF002002F018FF552002F0DC
:1033E00015FF002002F012FF442002F00FFF002022
:1033F00002F00CFF442002F009FF002002F006FF5B
:10340000552002F003FF002002F000FFE92002F047
:103410000FFFAA2002F0FAFE002002F0F7FE0020C3
:1034200002F0F4FE002002F0F1FE002002F000FFA6
:10343000AA2002F0EBFECF2002F0FAFE002002F0FC
:10344000E5FE002002F0E2FE002002F0DFFE002098
:1034500002F0DCFE002002F0D9FE002002F0D6FED1
:10346000002002F0D3FE002002F0D0FE002002F087
:10347000CDFE002002F0CAFE002002F0C7FE0020B0
:1034800002F0C4FE002002F0C1FE002002F0BEFEE9
:10349000002002F0BBFE002002F0B8FE002002F087
:1034A000B5FEF02002F0C4FE002002F0AFFE502076
:1034B00002F0ACFE002002F0A9FE002002F0A6FE01
:1034C000002002F0A3FEF32002F0B2FE002002F082
:1034D0009DFEF92002F0ACFE062002F097FE1020BF
:1034E00002F094FE292002F091FE002002F08EFEF0
:1034F0003A2002F09DFE552002F088FE112002F0D5
:1035000097FE642004F04AFE292002F091FE352047
:1035100002F08EFE002002F079FE512002F088FEBB
:10352000FF2002F073FE532002F082FE2C2002F0F6
:103530006DFE552002F07CFE822002F067FE2C20FA
:10354000FEE3A8427ED14FF470445521204602F09C
:1035500087FE651CAA21284602F082FEA61C522185
:10356000304602F07DFEE71C0821384602F078FE66
:103570004FF204080121404602F072FE0D214FF483
:10358000304002F06DFE0D214BF2010002F068FEAA
:103590000D214BF2020002F063FE4FF43649342154
:1035A000484602F05DFE34214BF2016002F058FE05
:1035B00034214BF2026002F053FE4FF4314A0D21E8
:1035C000504602F04DFE4BF2011B0D21584602F011
:1035D00047FE0D214BF2021002F042FE34214FF45F
:1035E000374002F03DFE34214BF2017002F038FE0C
:1035F00034214BF2027002F033FE00214FF43240CE
:1036000002F02EFE00214BF2012002F029FE0021E3
:103610004BF2022002F024FE24214FF4384002F045
:103620001FFE24214BF6010002F01AFE24214BF666
:10363000020002F015FE01214FF43F4002F010FE9F
:103640000F2100E0FEE34FF4334002F009FE0F21AA
:103650004BF2013002F004FE0F214BF2023002F077
:10366000FFFD34214FF4394002F0FAFD34214BF6CE
:10367000011002F0F5FD34214BF6021002F0F0FDCE
:1036800008214FF4354002F0EBFD08214BF20150C8
:1036900002F0E6FD08214BF2025002F0E1FD0321A9
:1036A0004FF4424002F0DCFD24214FF43A4002F096
:1036B000D7FD24214BF6012002F0D2FD24214BF648
:1036C000022002F0CDFD00214FF43C4002F0C8FD85
:1036D00078214BF6014002F0C3FD00214BF6024079
:1036E00002F0BEFD00214FF43D4002F0B9FD78210B
:1036F0004BF6015002F0B4FD00214BF6025002F0EF
:10370000AFFD00214FF43E4002F0AAFD64214BF6CC
:10371000016002F0A5FD00214FF4514002F0A0FD30
:1037200033214DF2011002F09BFD00214DF20210F9
:1037300002F096FD34214DF2031002F091FD0021BC
:103740004DF2041002F08CFD3A214DF2051002F00A
:1037500087FD00214DF2061002F082FD4A214DF254
:10376000071002F07DFD00214DF2081002F078FDF7
:103770005C214DF2091002F073FD00214DF20A1098
:1037800002F06EFD81214DF20B1002F069FD002167
:103790004DF20C1002F064FDA6214DF20D1002F066
:1037A0005FFD00214DF20E1002F05AFDE5214DF2B1
:1037B0000F1002F055FD01214DF2101002F050FDE6
:1037C00013214DF2111002F04BFD01214DF21210A8
:1037D00002F046FD54214DF2131002F041FD01218B
:1037E0004DF2141002F03CFD82214DF2151002F052
:1037F00037FD01214DF2161002F032FDCA214DF2C3
:10380000171002F02DFD02214DF2181002F028FDD4
:1038100000214DF2191002F023FD02214DF21A1081
:1038200002F01EFD01214DF21B1002F019FD0221D4
:103830004DF21C1002F014FD34214DF21D1002F067
:103840000FFD02214DF21E1002F00AFD67214DF21C
:103850001F1002F005FD02214DF2201002F000FDC4
:1038600084214DF2211002F0FBFC02214DF22210C6
:1038700002F0F6FCA4214DF2231002F0F1FC02212B
:103880004DF2241002F0ECFCB7214DF2251002F0AD
:10389000E7FC02214DF2261002F0E2FCCF214DF2AE
:1038A000271002F0DDFC02214DF2281002F0D8FCB6
:1038B000DE214DF2291002F0D3FC02214DF22A1034
:1038C00002F0CEFCF2214DF22B1002F0C9FC0221D5
:1038D0004DF22C1002F0C4FCFE214DF22D1002F02E
:1038E000BFFC03214DF22E1002F0BAFC10214DF264
:1038F0002F1002F0B5FC03214DF2301002F0B0FCA5
:1039000033214DF2311002F0ABFC03214DF23210A5
:1039100002F0A6FC6D214DF2331002F0A1FC002153
:103920004FF4524002F09CFC33214DF2012002F092
:1039300097FC00214DF2022002F092FC34214DF25E
:10394000032002F08DFC00214DF2042002F088FCDF
:103950003A214DF2052002F083FC00214DF20620B1
:1039600002F07EFC4A214DF2072002F079FC002192
:103970004DF2082002F074FC5C214DF2092002F0A7
:103980006FFC00214DF20A2002F06AFC81214DF209
:103990000B2002F065FC00214DF20C2002F060FCCF
:1039A000A6214DF20D2002F05BFC00214DF20E200D
:1039B00002F056FCE5214DF20F2002F051FC0121EE
:1039C0004DF2102002F04CFC13214DF2112002F0B8
:1039D00047FC01214DF2122002F042FC54214DF22D
:1039E000132002F03DFC01214DF2142002F038FCBE
:1039F00082214DF2152002F033FC01214DF21620F8
:103A000002F02EFCCA214DF2172002F029FC0221FF
:103A10004DF2182002F024FC00214DF2192002F092
:103A20001FFC02214DF21A2002F01AFC01214DF276
:103A30001B2002F015FC02214DF21C2002F010FCAC
:103A400034214DF21D2002F00BFC02214DF21E200C
:103A500002F006FC67214DF21F2002F001FC02215A
:103A60004DF2202002F0FCFB84214DF2212002F0D7
:103A7000F7FB02214DF2222002F0F2FBA4214DF2CD
:103A8000232002F0EDFB02214DF2242002F0E8FB9E
:103A9000B7214DF2252002F0E3FB02214DF2262052
:103AA00002F0DEFBCF214DF2272002F0D9FB0221EC
:103AB0004DF2282002F0D4FBDE214DF2292002F045
:103AC000CFFB02214DF22A2002F0CAFBF2214DF277
:103AD0002B2002F0C5FB02214DF22C2002F0C0FB8E
:103AE000FE214DF22D2002F0BBFB03214DF22E20D2
:103AF00002F0B6FB10214DF22F2002F0B1FB0321A2
:103B00004DF2302002F0ACFB33214DF2312002F0B7
:103B1000A7FB03214DF2322002F0A2FB6D214DF2F2
:103B2000332002F09DFB00214FF4534002F098FB3C
:103B300033214DF2013002F093FB00214DF20230AF
:103B400002F08EFB34214DF2033002F089FB00219C
:103B50004DF2043002F084FB3A214DF2053002F0C0
:103B60007FFB00214DF2063002F07AFB4A214DF234
:103B7000073002F075FB00214DF2083002F070FBB7
:103B80005C214DF2093002F06BFB00214DF20A304E
:103B900002F066FB81214DF20B3002F061FB002147
:103BA0004DF20C3002F05CFBA6214DF20D3002F01C
:103BB00057FB00214DF20E3002F052FBE5214DF291
:103BC0000F3002F04DFB01214DF2103002F048FBA6
:103BD00013214DF2113002F043FB01214DF212305E
:103BE00002F03EFB54214DF2133002F039FB01216B
:103BF0004DF2143002F034FB82214DF2153002F008
:103C00002FFB01214DF2163002F02AFBCA214DF2A2
:103C1000173002F025FB02214DF2183002F020FB94
:103C200000214DF2193002F01BFB02214DF21A3037
:103C300002F016FB01214DF21B3002F011FB0221B4
:103C40004DF21C3002F00CFB34214DF21D3002F01D
:103C500007FB02214DF21E3002F002FB67214DF2FC
:103C60001F3002F0FDFA02214DF2203002F0F8FA86
:103C700084214DF2213002F0F3FA02214DF222307C
:103C800002F0EEFAA4214DF2233002F0E9FA02210B
:103C90004DF2243002F0E4FAB7214DF2253002F063
:103CA000DFFA02214DF2263002F0DAFACF214DF28E
:103CB000273002F0D5FA02214DF2283002F0D0FA76
:103CC000DE214DF2293002F0CBFA02214DF22A30EA
:103CD00002F0C6FAF2214DF22B3002F0C1FA0221B5
:103CE0004DF22C3002F0BCFAFE214DF22D3002F0E4
:103CF000B7FA03214DF22E3002F0B2FA10214DF244
:103D00002F3002F0ADFA03214DF2303002F0A8FA64
:103D100033214DF2313002F0A3FA03214DF232305B
:103D200002F09EFA6D214DF2333002F099FA002133
:103D30004FF4544002F094FA33214DF2014000E078
:103D40007EE302F08DFA00214DF2024002F088FA83
:103D500034214DF2034002F083FA00214DF2044079
:103D600002F07EFA3A214DF2054002F079FA002184
:103D70004DF2064002F074FA4A214DF2074002F07B
:103D80006FFA00214DF2084002F06AFA5C214DF210
:103D9000094002F065FA00214DF20A4002F060FA93
:103DA00081214DF20B4002F05BFA00214DF20C40F4
:103DB00002F056FAA6214DF20D4002F051FA002110
:103DC0004DF20E4002F04CFAE5214DF20F4002F0A8
:103DD00047FA01214DF2104002F042FA13214DF250
:103DE000114002F03DFA01214DF2124002F038FA82
:103DF00054214DF2134002F033FA01214DF21440E8
:103E000002F02EFA82214DF2154002F029FA01212A
:103E10004DF2164002F024FACA214DF2174002F08A
:103E20001FFA02214DF2184002F01AFA00214DF259
:103E3000194002F015FA02214DF21A4002F010FA70
:103E4000012100E000E34DF21B4002F009FA0221DB
:103E50004DF21C4002F004FA34214DF21D4002F0F4
:103E6000FFF902214DF21E4002F0FAF967214DF2EE
:103E70001F4002F0F5F902214DF2204002F0F0F966
:103E800084214DF2214002F0EBF902214DF2224053
:103E900002F0E6F9A4214DF2234002F0E1F90221FB
:103EA0004DF2244002F0DCF9B7214DF2254002F03A
:103EB000D7F902214DF2264002F0D2F9CF214DF27E
:103EC000274002F0CDF902214DF2284002F0C8F956
:103ED000DE214DF2294002F0C3F902214DF22A40C1
:103EE00002F0BEF9F2214DF22B4002F0B9F90221A5
:103EF0004DF22C4002F0B4F9FE214DF22D4002F0BB
:103F0000AFF903214DF22E4002F0AAF910214DF233
:103F10002F4002F0A5F903214DF2304002F0A0F944
:103F200033214DF2314002F09BF903214DF2324032
:103F300002F096F96D214DF2334002F091F9002123
:103F40004FF4554002F08CF933214DF2015002F04C
:103F500087F900214DF2025002F082F934214DF22E
:103F6000035002F07DF900214DF2045002F078F97F
:103F70003A214DF2055002F073F900214DF206503E
:103F800002F06EF94A214DF2075002F069F9002162
:103F90004DF2085002F064F95C214DF2095002F034
:103FA0005FF900214DF20A5002F05AF981214DF2D9
:103FB0000B5002F055F900214DF20C5002F050F96F
:103FC000A6214DF20D5002F04BF900214DF20E509A
:103FD00002F046F9E5214DF20F5002F041F90121BE
:103FE0004DF2105002F03CF913214DF2115002F045
:103FF00037F901214DF2125002F032F954214DF2FD
:10400000135002F02DF901214DF2145002F028F95D
:1040100082214DF2155002F023F901214DF2165084
:1040200002F01EF9CA214DF2175002F019F90221CF
:104030004DF2185002F014F900214DF2195002F01F
:104040000FF902214DF21A5002F00AF901214DF246
:104050001B5002F005F902214DF21C5002F000F94C
:1040600034214DF21D5002F0FBF802214DF21E509A
:1040700002F0F6F867214DF21F5002F0F1F802212C
:104080004DF2205002F0ECF884214DF2215002F064
:10409000E7F802214DF2225002F0E2F8A4214DF29D
:1040A000235002F0DDF802214DF2245002F0D8F83E
:1040B000B7214DF2255002F0D3F802214DF22650DF
:1040C00002F0CEF8CF214DF2275002F0C9F80221BC
:1040D0004DF2285002F0C4F8DE214DF2295002F0D2
:1040E000BFF802214DF22A5002F0BAF8F2214DF247
:1040F0002B5002F0B5F802214DF22C5002F0B0F82E
:10410000FE214DF22D5002F0ABF803214DF22E505E
:1041100002F0A6F810214DF22F5002F0A1F8032171
:104120004DF2305002F09CF833214DF2315002F044
:1041300097F803214DF2325002F092F86D214DF2C2
:10414000335002F08DF800214FF4564002F088F809
:1041500033214DF2016002F083F800214DF202603C
:1041600002F07EF834214DF2036002F079F800216C
:104170004DF2046002F074F83A214DF2056002F04D
:104180006FF800214DF2066002F06AF84A214DF204
:10419000076002F065F800214DF2086002F060F857
:1041A0005C214DF2096002F05BF800214DF20A60DB
:1041B00002F056F881214DF20B6002F051F8002117
:1041C0004DF20C6002F04CF8A6214DF20D6002F0A9
:1041D00047F800214DF20E6002F042F8E5214DF261
:1041E0000F6002F03DF801214DF2106002F038F846
:1041F00013214DF2116002F033F801214DF21260EB
:1042000002F02EF854214DF2136002F029F801213A
:104210004DF2146002F024F882214DF2156002F094
:104220001FF801214DF2166002F01AF8CA214DF272
:10423000176002F015F802214DF2186002F010F834
:1042400000214DF2196002F00BF802214DF21A60C4
:1042500002F006F801214DF21B6002F001F8022184
:104260004DF21C6001F0FCFF34214DF21D6001F0A5
:10427000F7FF02214DF21E6001F0F2FF67214DF2BF
:104280001F6001F0EDFF02214DF2206001F0E8FF18
:1042900084214DF2216001F0E3FF02214DF2226002
:1042A00001F0DEFFA4214DF2236001F0D9FF0221CD
:1042B0004DF2246001F0D4FFB7214DF2256001F0EA
:1042C000CFFF02214DF2266001F0CAFFCF214DF24F
:1042D000276001F0C5FF02214DF2286001F0C0FF08
:1042E000DE214DF2296001F0BBFF02214DF22A6070
:1042F00001F0B6FFF2214DF22B6001F0B1FF022177
:104300004DF22C6001F0ACFFFE214DF22D6001F06A
:10431000A7FF03214DF22E6001F0A2FF10214DF204
:104320002F6001F09DFF03214DF2306001F098FFF6
:1043300033214DF2316001F093FF03214DF23260E1
:1043400001F08EFF6D214DF2336001F089FF5521A0
:10435000204601F085FFAA21284601F081FF522165
:10436000304601F07DFF0821384601F079FF002139
:10437000404601F075FFCC21504601F071FF00214D
:10438000584601F06DFF0521484601F069FF702194
:104390004FF4374001F064FF70214BF2017001F0DF
:1043A0005FFF01214FF4384001F05AFF03214BF623
:1043B000010001F055FF03214BF6020001F050FF10
:1043C00003214BF6030001F04BFF02214FF43C4068
:1043D00001F046FF00214BF6014001F041FF0021B2
:1043E0004BF6024001F03CFFD0214FF4494001F070
:1043F00037FF02214CF6011001F032FF50214CF63C
:10440000021001F02DFF50214CF6031001F028FF9F
:1044100050214CF6041001F023FF00214FF45450BA
:1044200001F01EFF55214FF4685001F019FF4FF4C1
:10443000885001F0FDFE782003F0CAFE4FF42450AE
:1044400001F0F6FE01F04ABAA0F513414FF480776F
:104450004FF4E06940F2022A40F23F144FF427463D
:1044600025392AD04FF4017B40F20775C91E7CD054
:104470004FF48876083179D0113978D0A0F5A84169
:10448000083975D0A0F5A8514FF44076053970D0A1
:10449000B1F520416ED0B1F580516CD0A0F5094145
:1044A000893969D0A0F58A41313966D0091F65D0B4
:1044B000A0F5C85163397DD0C4E747F6F001E52087
:1044C00001F0CEFE3946012001F0CAFE4946022025
:1044D00001F0C6FE41F23001032001F0C1FE0021CF
:1044E000042001F0BDFE5146082001F0B9FE002174
:1044F000092001F0B5FE00210A2001F0B1FE0021E3
:104500000C2001F0ADFE00210D2001F0A9FE0021DC
:104510000F2001F0A5FE0021102001F0A1FE0721CF
:10452000112001F09DFE0021122001F099FE0021D2
:10453000132001F095FE0021072001F091FE41F2C9
:104540009061102001F08CFE40F22721112001F033
:1045500087FE9D21122001F083FE4FF4C8511320E5
:1045600001F07EFE2521292009E07EE038E1DBE133
:10457000AEE249E3FEE3FEE3FEE3FEE3FEE301F029
:104580006FFE0D212B2001F06BFE0721302001F082
:1045900067FE40F20331312001F062FE0321322038
:1045A00001F05EFE40F20621352001F059FE08219F
:1045B000362000E0FDE301F053FE40F206413720D3
:1045C00001F04EFE4FF44171382001F049FE072101
:1045D000392001F045FE40F202613C2001F040FE2E
:1045E00008213D2001F03CFE0021502001F038FE62
:1045F000EF21512001F034FE0021522001F030FE65
:104600002146532001F02CFE3146602001F028FEA7
:104610000121612001F024FE00216A2001F020FE2A
:104620000021802001F01CFE0021812001F018FEF5
:104630000021822001F014FE0021832001F010FEF1
:104640000021842001F00CFE0021852001F008FEED
:104650001021902001F004FE4FF4C061922001F07F
:10466000FFFD40F233110720FEE341F28F01EC2001
:1046700001F0F6FD41F23421EF2001F0F1FD394661
:10468000012001F0EDFD4946022001F0E9FD41F273
:104690003001032001F0E4FD0021042001F0E0FDE1
:1046A0005146082001F0DCFD0021092001F0D8FD71
:1046B00000210A2001F0D4FD01210C2001F0D0FDE1
:1046C00000210D2001F0CCFD00210F2001F0C8FDDC
:1046D0000021102001F0C4FD0721112001F0C0FDD0
:1046E0000021122001F0BCFD0021132001F0B8FDD3
:1046F0000121072001F0B4FD322003F04FFD41F20B
:104700009041102001F0ACFD40F22721112001F072
:10471000A7FD322003F042FD8A21122001F0A0FD06
:10472000322003F03BFD4FF4D051132001F098FDEF
:104730000621292001F094FD0D212B2001F090FD90
:10474000322003F02BFD0021202001F089FD002103
:10475000212001F085FD322003F020FD00213020D2
:1047600001F07EFD40F20461312001F079FD40F25C
:104770000531322001F074FD0021352001F070FD7B
:1047800040F60941362001F06BFD5946372001F013
:1047900067FD40F20131382001F062FD29463920E1
:1047A00001F05EFD00213C2001F05AFD40F60A2197
:1047B0003D2001F055FD322003F0F0FC0021502097
:1047C00001F04EFDEF21512001F04AFD0021522061
:1047D00001F046FD2146532001F042FD31464CE1F7
:1047E0000021084601F03CFD3946012001F038FD6A
:1047F0004946022001F034FD41F23001032001F06E
:104800002FFD0021042001F02BFD5146082001F06E
:1048100027FD0021092001F023FD00210A2001F0DD
:104820001FFD01210C2001F01BFD00210D2001F0D6
:1048300017FD00210F2001F013FD322003F0AEFC24
:1048400040F20111072001F00BFD322003F0A6FC1D
:104850004FF48651102001F003FD0721112001F0D3
:10486000FFFC3146122001F0FBFC4FF430611320B5
:1048700001F0F6FC0021292001F0F2FC44F21001C5
:104880002B2001F0EDFC0021502001F0E9FCEF218C
:10489000512001F0E5FC0021522001F0E1FC21460D
:1048A000532001F0DDFC4FF41C51602001F0D8FCD6
:1048B0000121612001F0D4FC00216A2001F0D0FC2C
:1048C0000021802001F0CCFC0021812001F0C8FCF7
:1048D0000021822001F0C4FC0021832001F0C0FCF3
:1048E0000021842001F0BCFC0021852001F0B8FCEF
:1048F0001021902001F0B4FC0021922001F0B0FCC6
:104900000121932001F0ACFC3146952001F0A8FC78
:104910000021972001F0A4FC0021982001F0A0FCC8
:1049200040F27311072080E341F21401E72001F007
:1049300097FC3946012001F093FC4FF400710220EE
:1049400001F08EFC41F23801032001F089FC514650
:10495000082001F085FC0021092001F081FC0021E4
:104960000A2001F07DFC00210C2001F079FC0021DF
:104970000D2001F075FC00210F2001F071FC0021D9
:10498000102001F06DFC0721112001F069FC0021CD
:10499000122001F065FC0021132001F061FCC82009
:1049A00003F0FCFB41F29061102001F059FC40F251
:1049B0002721112001F054FC322003F0EFFB0C21E1
:1049C000122001F04DFC322003F0E8FB4FF40061AF
:1049D000132001F045FC1121292001F041FC0B219D
:1049E0002B2001F03DFC322003F0D8FB00212020D9
:1049F00001F036FC2146212001F032FC002130205C
:104A000001F02EFC4FF483763146312001F028FC72
:104A10000021322001F024FC5946352001F020FC11
:104A200041F20A61362001F01BFC2946372001F0D3
:104A300017FC3146382001F013FC2946392001F0DB
:104A40000FFC40F202413C2001F00AFC40F60F410D
:104A50003D2001F005FC0021502001F001FCEF2178
:104A6000512001F0FDFB0021522001F0F9FB21460D
:104A7000532001F0F5FB4FF41C51602001F0F0FBD6
:104A80000121612001F0ECFB00216A2001F0E8FB2C
:104A90000021802001F0E4FB0021812001F0E0FBF7
:104AA0000021822001F0DCFB0021832001F0D8FBF3
:104AB0000021842001F0D4FB0021852001F0D0FBEF
:104AC0001021902001F0CCFB4FF4C0619220FCE358
:104AD0003946012001F0C4FB4946022001F0C0FB29
:104AE00041F23001032001F0BBFB0021042001F062
:104AF000B7FB40F20721082001F0B2FB002109209A
:104B000001F0AEFB00210A2001F0AAFB00210C20DD
:104B100001F0A6FB00210D2001F0A2FB00210F20D7
:104B200001F09EFB142003F039FB41F2B06110202C
:104B300001F096FB0121112001F092FB01211720C9
:104B400001F08EFB4FF49C71122001F089FB4FF4B1
:104B50000061132001F084FB0921292001F080FB72
:104B600009212A2001F07CFB0021A42001F078FB20
:104B70000021502001F074FBEF21512001F070FB67
:104B80000021522001F06CFB2146532001F068FB0C
:104B90004FF41C51602001F063FB0121612001F002
:104BA0005FFB00216A2001F05BFB0021802001F007
:104BB00057FB0021812001F053FB0021822001F0EE
:104BC0004FFB0021832001F04BFB0021842001F0EA
:104BD00047FB0021852001F043FB1321902001F0C9
:104BE0003FFB0021922001F03BFB0321932001F0C9
:104BF00037FB3146952001F033FB40F2731107205B
:104C000001F02EFB322010E10021072001F028FBEB
:104C1000322003F0C3FA4FF48E71122001F020FB12
:104C20000121A42001F01CFB0F21082001F018FB3A
:104C300008210A2001F014FB08210D2001F010FBCF
:104C4000A8462946302001F00BFB0721312001F056
:104C500007FB40F20361322001F002FB4D4649465A
:104C6000332001F0FDFA5146342001F0F9FA022117
:104C7000352001F0F5FA41F60F71362001F0F0FA17
:104C80004146372001F0ECFA0021382001F0E8FA23
:104C90000021392001F0E4FA41463A2001F0E0FA1F
:104CA00000213B2001F0DCFA07213C2001F0D8FA7A
:104CB00000213D2001F0D4FA322003F06FFA0121E7
:104CC000072001F0CDFA0121172001F0C9FA3220A6
:104CD00003F064FA4FF4BD51102001F0C1FA40F224
:104CE0001721112001F0BCFA4FF48F71122001F04E
:104CF000B7FA4FF47061132001F0B2FA00212A20B4
:104D000001F0AEFA0A21292001F0AAFA4FF49F71AE
:104D1000122001F0A5FA0021502001F0A1FAEF21A4
:104D2000512001F09DFA0021522001F099FA21460C
:104D3000532001F095FA4FF41C51602001F090FAD5
:104D40000121612001F08CFA00216A2001F088FA2B
:104D50000021802001F084FA0021812001F080FAF6
:104D60000021822001F07CFA0021832001F078FAF2
:104D7000002104E05CE059E120E2D3E287E38420F3
:104D800001F06EFA0021852001F06AFA13219020CB
:104D900001F066FA3146922001F062FA0521932073
:104DA00001F05EFA0021952001F05AFA00219720C7
:104DB00000E0FCE301F054FA0021982001F050FAE1
:104DC0003946012001F04CFA2946022001F048FA48
:104DD00041F23801032001F043FA0021042001F0E0
:104DE0003FFA00210C2001F03BFA00210F2001F0D6
:104DF00037FA0021202001F033FA0021212001F0B0
:104E00002FFA2121072001F02BFA142003F0C6F914
:104E10006121072001F024FA142003F0BFF940F2C9
:104E20007311072001F01CFA142003F0B7F92DE3E9
:104E30000021084601F014FA0021084601F010FA9A
:104E40000021084601F00CFA0021084601F008FA9A
:104E50000121A42001F004FA142003F09FF94FF47B
:104E60001C552946602000E0DBE001F0F9F95646C8
:104E70005146082001F0F4F94FF40571302001F09B
:104E8000EFF943F21571312001F0EAF940F20461C3
:104E9000322001F0E5F940F61661332001F0E0F927
:104EA00042F21121342001F0DBF94FF4A8513520F2
:104EB00001F0D6F948F20751362001F0D1F941F25C
:104EC0000741372001F0CCF941F20341382001F0CD
:104ED000C7F92021392001F0C3F91A21902001F0EF
:104EE000BFF90021102001F0BBF90721112001F0CA
:104EF000B7F90021122001F0B3F90021132001F0CD
:104F0000AFF9142003F04AF94FF4E661102001F0E4
:104F1000A7F940F23711112001F0A2F9142003F093
:104F20003DF94FF4DC71122001F09AF9142003F0DE
:104F300035F94FF47061132001F092F980212A2095
:104F400001F08EF94821292001F08AF9142003F09C
:104F500025F93946012001F083F94946022001F084
:104F60007FF941F23801032001F07AF93146082037
:104F700001F076F900210A2001F072F900210C20DD
:104F800001F06EF900210D2001F06AF930210E20A8
:104F900001F066F90021502001F062F9EF21512063
:104FA00001F05EF90021522001F05AF92146532008
:104FB00001F056F92946602001F052F901216120E3
:104FC00001F04EF900216A2001F04AF911219020E8
:104FD00001F046F94FF4C061922001F041F940F22E
:104FE0000241932001F03CF90221942001F038F9AC
:104FF000142003F0D3F80121072001F031F9142027
:1050000003F0CCF86121072001F02AF940F2731176
:10501000072001F025F90021202001F021F90021CD
:10502000212001F01DF9222100202DE20021084657
:1050300001F016F90021084601F012F9142003F0DE
:10504000ADF80021084601F00BF90021084601F0F7
:1050500007F90021084601F003F90021084601F094
:10506000FFF80121A42001F0FBF8142003F096F8CA
:105070004FF41C51602001F0F3F840F606010820BF
:1050800001F0EEF840F203752946302001F0E8F80F
:105090000121312001F0E4F80421322001F0E0F890
:1050A0004FF48171332001F0DBF83146342001F0F8
:1050B000D7F840F20311352001F0D2F81F21362035
:1050C00001F0CEF82946372001F0CAF80121382036
:1050D00001F0C6F80421392001F0C2F81521902012
:1050E00001F0BEF84FF48261102001F0B9F840F2EF
:1050F0004721112001F0B4F84FF4DE71122001F0C5
:10510000AFF84FF46061132001F0AAF8782003F0A3
:1051100045F83946012001F0A3F84FF40071022050
:1051200001F09EF841F23001032001F099F80821C6
:105130000A2001F095F800210C2001F091F82021BF
:105140000E2001F08DF800210F2001F089F80021D8
:10515000202001F085F80021212001F081F83D2177
:105160002A2001F07DF8142003F018F82D212920C1
:1051700001F076F80021502001F072F84DF2EF01B5
:10518000512001F06DF80021522001F069F821460C
:10519000532001F065F80021612001F061F8002141
:1051A0006A2001F05DF83146922001F059F805219E
:1051B000932001F055F83946FFF7B4BB01210020D8
:1051C00001F04EF84AF6A401032001F049F800214D
:1051D0000C2001F045F840F60C010D2001F040F8DC
:1051E0004FF42C510E2001F03BF8B0211E2001F0AD
:1051F00037F842F63F31012001F032F84FF4C06138
:10520000022001F02DF80021102001F029F846F2CB
:105210007801112001F024F80021052001F020F888
:105220000021062001F01CF84EF61C71162001F03A
:1052300017F80321172001F013F840F2332107205B
:1052400001F00EF800210B2001F00AF800210F20D8
:1052500001F006F80021412001F002F8002142206F
:1052600000F0FEFF0021482000F0FAFF214649200F
:1052700000F0F6FF00214A2000F0F2FF00214B2051
:1052800000F0EEFF4FF46F41442000F0E9FF0021F1
:10529000452000F0E5FF2146462000F0E1FF2946C9
:1052A000302000F0DDFF5C465946312000F0D8FF89
:1052B0002146322000F0D4FF40F202552946332027
:1052C00000F0CEFF691D342000E085E100F0C8FF4A
:1052D0002146352000F0C4FF2146362000F0C0FFF3
:1052E0002946372000F0BCFF40F2023421463A2024
:1052F00000F0B6FF21463B2000F0B2FF0021232042
:1053000000F0AEFF0021242000F0AAFF4FF400417E
:10531000252000F0A5FF00214F2000F0A1FF002173
:105320004E20B1E00121002000F09AFF0A2002F097
:1053300035FF41F22861102000F092FF0E2112206B
:1053400000F08EFF40F63921132000F089FF0A207B
:1053500002F024FF4021112000F082FF502115208F
:1053600000F07EFF0A2002F019FF1E21122000F03B
:1053700077FF0A2002F012FF4FF4B151102000F025
:105380006FFF42F63921132000F06AFF0A2002F075
:1053900005FF3946012000F063FF3146022000F08E
:1053A0005FFF41F23801032000F05AFF5146082008
:1053B00000F056FF08210A2000F052FF00213020A3
:1053C00000F04EFF40F20241312000F049FF4FF45F
:1053D0008371322000F044FF40F20351332000F08B
:1053E0003FFF4FF48271342000F03AFF40F2013168
:1053F000352000F035FF2946362000F031FF40F21D
:105400000531372000F02CFF4FF40271382000F0F6
:1054100027FF40F60B71392000F022FF02214120C6
:1054200000F01EFF4FF41C51602000F019FF012115
:10543000612000F015FF4FF40471902000F010FF80
:105440004FF48571922000F00BFF0421932000F0AF
:1054500007FF3946A02000F003FF0121072000F0DC
:10546000FFFE2121072000F0FBFE2321072000F092
:10547000F7FE3321072000F0F3FE40F2331107203E
:1054800000F0EEFE0021A02000F0EAFE26E230212E
:10549000152000F0E5FE10219A2000F0E1FE202109
:1054A000112000F0DDFE43F22841102000F0D8FE6C
:1054B0000221122000F0D4FE41F23801132000F046
:1054C000CFFE282002F06AFE1221084600F0C8FE36
:1054D000282002F063FE43F22041102000F0C0FEBD
:1054E00043F23801132000F0BBFE462002F056FEC6
:1054F0000021302000F0B4FE40F20241312000F0E3
:10550000AFFE40F20731322000F0AAFE4FF44171A5
:10551000332000F0A5FE0421342000F0A1FE40F26B
:105520000141352000F09CFE2946362000F098FE0F
:1055300040F20531372000F093FE4FF4C26421465B
:10554000382000F08DFE2146392000F089FE3946D2
:10555000012000F085FE3146022000F081FE41F27C
:105560003001032000F07CFE40F60801082000F026
:1055700077FE08210A2000F073FE4FF41C516020D2
:1055800000F06EFE0121612000F06AFE4FF49F7171
:10559000902000F065FE3946922000F061FE394609
:1055A000932000F05DFE4FF44051A02000E018E091
:1055B00000F056FE1021A32000F052FE012107202A
:1055C00000F04EFE2121072000F04AFE2321072093
:1055D00000F046FE3321072000F042FE40F2331176
:1055E000EAE5E22000F024FE4446C8F810704FF4CB
:1055F0000075C8F81450DFF800831D21C8F80010AA
:105600008026666126612561276165610220C8F8F0
:105610000000666126612561276165610420C8F884
:105620000000666126612561642002F0D1FDE02062
:1056300000F0FEFD276165614FF0010AC8F800A087
:105640006661266125610A2002F0A8FDE02000F0D5
:10565000EFFD276165614FF0030BC8F800B066618C
:10566000266125610C2002F099FD012000F0E0FD8B
:105670000A2002F093FDE62000F0DAFD2761656163
:105680002F21C8F8001066612661256127616561D8
:10569000FF21C8F8001066612661256127616561F8
:1056A000C8F80010666126612561B02000F0C0FDD9
:1056B000276165612021C8F80010666126612561B7
:1056C000276165614FF00009C8F8009066612661A6
:1056D000256127616561C8F800B0666126612561B2
:1056E0002761656140F21F31C8F8001066612661CC
:1056F000256127616561C8F800A0666126612561A2
:105700002761656140F2DF11C8F80010666126610B
:10571000256127616561C8F8009066612661256191
:10572000B42000F085FD276165610420C8F8000001
:105730006661266125612761656140F21F41C8F8F5
:10574000001066612661256127616561C8F80090D7
:10575000666126612561276165612E21C8F8001008
:10576000666126612561276165614146C8F8009040
:1057700066612661256127616561C8F800906661F0
:105780002661256127616561C8F800906661266120
:10579000256127616561C1F8009066612661256118
:1057A000B62000F045FD276165610220C8F80000C1
:1057B000666126612561276165614FF40371C8F850
:1057C000001066612661256127616561C8F8009057
:1057D000666126612561276165611721C8F800109F
:1057E000666126612561276165611521C8F8001091
:1057F00066612661256127616561C8F80090666170
:105800002661256127616561C8F80090666126619F
:105810002561F02000F00CFD27616561C8F800B03B
:10582000666126612561292000F002FDD02000F08C
:10583000FFFC27616561C8F80090666126612561FB
:10584000BE2000F0F5FC276165610521C8F8001055
:1058500066612661256127616561FE21C8F8001037
:10586000666126612561276165614146C8F800A02F
:1058700066612661256127616561C8F800906661EF
:105880002661256127616561C8F80090666126611F
:10589000256127616561C1F8009066612661256117
:1058A000B82000F0C5FC27616561C8F800B06661EA
:1058B0002661256127616561C8F800A066612661DF
:1058C0002561BA2000F0B4FC27616561C8F800A02A
:1058D000666126612561642000F05AF80020FCF71B
:1058E00005FA06490120C1F8A8014FF6FF70FCF740
:1058F000BBF9BDE8F88F00000C0C0140000022420B
:105900000346012000E05843491EC9B2FBD270474C
:105910002DE9F047DFF85C904FF08830C9F80000BF
:1059200009F104052860134E00200C363060124C3B
:10593000A8152061470067614FF04008C4F8148043
:105940000E488088A0F50941893902D1022002F071
:105950003FFC084808300068C4F8108080B2276116
:105960004FF03331C9F8001029604FF6FF713160F4
:10597000BDE8F087000C01400010014088030020C2
:1059800010B500F055FCBDE81040FFF7C1BF0000A6
:105990002DE9F0478146BE2000F04AFC204C4FF430
:1059A0008077276165156561DFF878800521C8F883
:1059B0000010802666612661256127616561484681
:1059C00004F01BFD4FF06632174B04F029FD04F084
:1059D000E7FCC8F800006661266125612761656102
:1059E0000121C8F8001066612661256127616561A3
:1059F000FF21C8F800106661266125612761656195
:105A00000020C8F800006661266125612761656194
:105A1000C8F80000666126612561BDE8F0870000D6
:105A2000001001400C0C0140666604402DE9F04F67
:105A3000B84C00262146A279898846F6040341F62F
:105A40006317012A01D02AB11DE099421BD0B94247
:105A500002D118E0B94216D1082814D2DFE800F0CC
:105A60000406080A0C0E101206200CE007200AE0BB
:105A7000042008E0052006E0012004E0002002E008
:105A8000032000E00220A1F5134C45F2103245F24C
:105A90001055BCF1410C07D0994205D0914203D07A
:105AA000A94201D0B9427DD1082812D2DFE800F026
:105AB000110406080A0C0E1080260AE0402608E0B1
:105AC000C02606E0202604E0602602E0A02600E0D2
:105AD000E026A94202D14FF4585000E0362091420E
